{
  "contractName": "AgriProduce",
  "abi": [
    {
      "anonymous": false,
      "inputs": [
        {
          "indexed": true,
          "internalType": "uint256",
          "name": "id",
          "type": "uint256"
        },
        {
          "indexed": false,
          "internalType": "string",
          "name": "origin",
          "type": "string"
        },
        {
          "indexed": false,
          "internalType": "string",
          "name": "owner",
          "type": "string"
        }
      ],
      "name": "ProduceAdded",
      "type": "event"
    },
    {
      "anonymous": false,
      "inputs": [
        {
          "indexed": true,
          "internalType": "uint256",
          "name": "id",
          "type": "uint256"
        },
        {
          "indexed": false,
          "internalType": "string",
          "name": "newOwner",
          "type": "string"
        }
      ],
      "name": "ProduceTransferred",
      "type": "event"
    },
    {
      "inputs": [],
      "name": "produceCount",
      "outputs": [
        {
          "internalType": "uint256",
          "name": "",
          "type": "uint256"
        }
      ],
      "stateMutability": "view",
      "type": "function"
    },
    {
      "inputs": [
        {
          "internalType": "string",
          "name": "_origin",
          "type": "string"
        },
        {
          "internalType": "string",
          "name": "_quality",
          "type": "string"
        },
        {
          "internalType": "uint256",
          "name": "_quantity",
          "type": "uint256"
        },
        {
          "internalType": "string",
          "name": "_harvestDate",
          "type": "string"
        },
        {
          "internalType": "string",
          "name": "_owner",
          "type": "string"
        }
      ],
      "name": "addProduce",
      "outputs": [],
      "stateMutability": "nonpayable",
      "type": "function"
    },
    {
      "inputs": [
        {
          "internalType": "uint256",
          "name": "_id",
          "type": "uint256"
        },
        {
          "internalType": "string",
          "name": "_newOwner",
          "type": "string"
        }
      ],
      "name": "transferProduce",
      "outputs": [],
      "stateMutability": "nonpayable",
      "type": "function"
    },
    {
      "inputs": [
        {
          "internalType": "uint256",
          "name": "_id",
          "type": "uint256"
        }
      ],
      "name": "getProduce",
      "outputs": [
        {
          "internalType": "uint256",
          "name": "id",
          "type": "uint256"
        },
        {
          "internalType": "string",
          "name": "origin",
          "type": "string"
        },
        {
          "internalType": "string",
          "name": "quality",
          "type": "string"
        },
        {
          "internalType": "uint256",
          "name": "quantity",
          "type": "uint256"
        },
        {
          "internalType": "string",
          "name": "harvestDate",
          "type": "string"
        },
        {
          "internalType": "string",
          "name": "owner",
          "type": "string"
        },
        {
          "internalType": "uint256",
          "name": "timestamp",
          "type": "uint256"
        }
      ],
      "stateMutability": "view",
      "type": "function"
    }
  ],
  "bytecode": "0x608060405234801561001057600080fd5b50610c57806100206000396000f3fe608060405234801561001057600080fd5b506004361061004c5760003560e01c8063389b806614610051578063769428d414610087578063a310001a146100a5578063f8e6a01f146100c1575b600080fd5b61006b60048036038101906100669190610804565b6100dd565b60405161007e979695949392919061099d565b60405180910390f35b61008f6103fd565b60405161009c9190610982565b60405180910390f35b6100bf60048036038101906100ba919061082d565b610403565b005b6100db60048036038101906100d6919061072d565b6104d4565b005b60006060806000606080600080881180156100fa57506001548811155b610139576040517f08c379a000000000000000000000000000000000000000000000000000000000815260040161013090610962565b60405180910390fd5b60008060008a81526020019081526020016000206040518060e00160405290816000820154815260200160018201805461017290610af1565b80601f016020809104026020016040519081016040528092919081815260200182805461019e90610af1565b80156101eb5780601f106101c0576101008083540402835291602001916101eb565b820191906000526020600020905b8154815290600101906020018083116101ce57829003601f168201915b5050505050815260200160028201805461020490610af1565b80601f016020809104026020016040519081016040528092919081815260200182805461023090610af1565b801561027d5780601f106102525761010080835404028352916020019161027d565b820191906000526020600020905b81548152906001019060200180831161026057829003601f168201915b50505050508152602001600382015481526020016004820180546102a090610af1565b80601f01602080910402602001604051908101604052809291908181526020018280546102cc90610af1565b80156103195780601f106102ee57610100808354040283529160200191610319565b820191906000526020600020905b8154815290600101906020018083116102fc57829003601f168201915b5050505050815260200160058201805461033290610af1565b80601f016020809104026020016040519081016040528092919081815260200182805461035e90610af1565b80156103ab5780601f10610380576101008083540402835291602001916103ab565b820191906000526020600020905b81548152906001019060200180831161038e57829003601f168201915b505050505081526020016006820154815250509050806000015181602001518260400151836060015184608001518560a001518660c00151975097509750975097509750975050919395979092949650565b60015481565b60008211801561041557506001548211155b610454576040517f08c379a000000000000000000000000000000000000000000000000000000000815260040161044b90610962565b60405180910390fd5b80600080848152602001908152602001600020600501908051906020019061047d92919061060d565b504260008084815260200190815260200160002060060181905550817f2fe63807ab9efa16c16c4f59802b76884e2c938186702057c2c1b092055e44a3826040516104c89190610909565b60405180910390a25050565b600160008154809291906104e790610b23565b91905055506040518060e00160405280600154815260200186815260200185815260200184815260200183815260200182815260200142815250600080600154815260200190815260200160002060008201518160000155602082015181600101908051906020019061055b92919061060d565b50604082015181600201908051906020019061057892919061060d565b5060608201518160030155608082015181600401908051906020019061059f92919061060d565b5060a08201518160050190805190602001906105bc92919061060d565b5060c082015181600601559050506001547f2d1d8bb49ead2ecfc05d364396bf8520b1b499107187d0b34590de037eb0d98286836040516105fe92919061092b565b60405180910390a25050505050565b82805461061990610af1565b90600052602060002090601f01602090048101928261063b5760008555610682565b82601f1061065457805160ff1916838001178555610682565b82800160010185558215610682579182015b82811115610681578251825591602001919060010190610666565b5b50905061068f9190610693565b5090565b5b808211156106ac576000816000905550600101610694565b5090565b60006106c36106be84610a59565b610a28565b9050828152602081018484840111156106db57600080fd5b6106e6848285610aaf565b509392505050565b600082601f8301126106ff57600080fd5b813561070f8482602086016106b0565b91505092915050565b60008135905061072781610c0a565b92915050565b600080600080600060a0868803121561074557600080fd5b600086013567ffffffffffffffff81111561075f57600080fd5b61076b888289016106ee565b955050602086013567ffffffffffffffff81111561078857600080fd5b610794888289016106ee565b94505060406107a588828901610718565b935050606086013567ffffffffffffffff8111156107c257600080fd5b6107ce888289016106ee565b925050608086013567ffffffffffffffff8111156107eb57600080fd5b6107f7888289016106ee565b9150509295509295909350565b60006020828403121561081657600080fd5b600061082484828501610718565b91505092915050565b6000806040838503121561084057600080fd5b600061084e85828601610718565b925050602083013567ffffffffffffffff81111561086b57600080fd5b610877858286016106ee565b9150509250929050565b600061088c82610a89565b6108968185610a94565b93506108a6818560208601610abe565b6108af81610bf9565b840191505092915050565b60006108c7601283610a94565b91507f496e76616c69642070726f6475636520494400000000000000000000000000006000830152602082019050919050565b61090381610aa5565b82525050565b600060208201905081810360008301526109238184610881565b905092915050565b600060408201905081810360008301526109458185610881565b905081810360208301526109598184610881565b90509392505050565b6000602082019050818103600083015261097b816108ba565b9050919050565b600060208201905061099760008301846108fa565b92915050565b600060e0820190506109b2600083018a6108fa565b81810360208301526109c48189610881565b905081810360408301526109d88188610881565b90506109e760608301876108fa565b81810360808301526109f98186610881565b905081810360a0830152610a0d8185610881565b9050610a1c60c08301846108fa565b98975050505050505050565b6000604051905081810181811067ffffffffffffffff82111715610a4f57610a4e610bca565b5b8060405250919050565b600067ffffffffffffffff821115610a7457610a73610bca565b5b601f19601f8301169050602081019050919050565b600081519050919050565b600082825260208201905092915050565b6000819050919050565b82818337600083830152505050565b60005b83811015610adc578082015181840152602081019050610ac1565b83811115610aeb576000848401525b50505050565b60006002820490506001821680610b0957607f821691505b60208210811415610b1d57610b1c610b9b565b5b50919050565b6000610b2e82610aa5565b91507fffffffffffffffffffffffffffffffffffffffffffffffffffffffffffffffff821415610b6157610b60610b6c565b5b600182019050919050565b7f4e487b7100000000000000000000000000000000000000000000000000000000600052601160045260246000fd5b7f4e487b7100000000000000000000000000000000000000000000000000000000600052602260045260246000fd5b7f4e487b7100000000000000000000000000000000000000000000000000000000600052604160045260246000fd5b6000601f19601f8301169050919050565b610c1381610aa5565b8114610c1e57600080fd5b5056fea26469706673582212200dd8cd5f4f5aac06473b750d12021e63a2fa4e8a7f854d34d1a32b44f7f92d3364736f6c63430008000033",
  "immutableReferences": {},
  "source": "// SPDX-License-Identifier: MIT\r\npragma solidity ^0.8.0;\r\n\r\ncontract AgriProduce {\r\n    struct Produce {\r\n        uint id;\r\n        string origin;\r\n        string quality;\r\n        uint quantity;\r\n        string harvestDate;\r\n        string owner;\r\n        uint timestamp;\r\n    }\r\n\r\n    mapping(uint => Produce) private produces;\r\n    uint public produceCount;\r\n\r\n    event ProduceAdded(uint indexed id, string origin, string owner);\r\n    event ProduceTransferred(uint indexed id, string newOwner);\r\n\r\n    function addProduce(\r\n        string memory _origin,\r\n        string memory _quality,\r\n        uint _quantity,\r\n        string memory _harvestDate,\r\n        string memory _owner\r\n    ) public {\r\n        produceCount++;\r\n        produces[produceCount] = Produce({\r\n            id: produceCount,\r\n            origin: _origin,\r\n            quality: _quality,\r\n            quantity: _quantity,\r\n            harvestDate: _harvestDate,\r\n            owner: _owner,\r\n            timestamp: block.timestamp\r\n        });\r\n        emit ProduceAdded(produceCount, _origin, _owner);\r\n    }\r\n\r\n    function transferProduce(uint _id, string memory _newOwner) public {\r\n        require(_id > 0 && _id <= produceCount, \"Invalid produce ID\");\r\n        produces[_id].owner = _newOwner;\r\n        produces[_id].timestamp = block.timestamp;\r\n        emit ProduceTransferred(_id, _newOwner);\r\n    }\r\n\r\n    function getProduce(uint _id) public view returns (\r\n        uint id,\r\n        string memory origin,\r\n        string memory quality,\r\n        uint quantity,\r\n        string memory harvestDate,\r\n        string memory owner,\r\n        uint timestamp\r\n    ) {\r\n        require(_id > 0 && _id <= produceCount, \"Invalid produce ID\");\r\n        Produce memory p = produces[_id];\r\n        return (\r\n            p.id,\r\n            p.origin,\r\n            p.quality,\r\n            p.quantity,\r\n            p.harvestDate,\r\n            p.owner,\r\n            p.timestamp\r\n        );\r\n    }\r\n}\r\n",
  "sourcePath": "C:\\Users\\HP\\OneDrive\\Desktop\\SIH PROJECT\\contracts\\AgriProduce.sol",
  "compiler": {
    "name": "solc",
    "version": "0.8.0+commit.c7dfd78e.Emscripten.clang"
  },
  "schemaVersion": "3.4.16",
  "updatedAt": "2025-09-25T21:22:15.658Z",
  "devdoc": {
    "kind": "dev",
    "methods": {},
    "version": 1
  },
  "userdoc": {
    "kind": "user",
    "methods": {},
    "version": 1
  }
}