{
  "contractName": "AgriProduce",
  "abi": [
    {
      "anonymous": false,
      "inputs": [
        {
          "indexed": false,
          "internalType": "uint256",
          "name": "id",
          "type": "uint256"
        },
        {
          "indexed": false,
          "internalType": "string",
          "name": "origin",
          "type": "string"
        },
        {
          "indexed": false,
          "internalType": "string",
          "name": "owner",
          "type": "string"
        }
      ],
      "name": "ProduceAdded",
      "type": "event"
    },
    {
      "anonymous": false,
      "inputs": [
        {
          "indexed": false,
          "internalType": "uint256",
          "name": "id",
          "type": "uint256"
        },
        {
          "indexed": false,
          "internalType": "string",
          "name": "newOwner",
          "type": "string"
        }
      ],
      "name": "ProduceTransferred",
      "type": "event"
    },
    {
      "inputs": [],
      "name": "produceCount",
      "outputs": [
        {
          "internalType": "uint256",
          "name": "",
          "type": "uint256"
        }
      ],
      "stateMutability": "view",
      "type": "function"
    },
    {
      "inputs": [
        {
          "internalType": "uint256",
          "name": "",
          "type": "uint256"
        }
      ],
      "name": "produces",
      "outputs": [
        {
          "internalType": "uint256",
          "name": "id",
          "type": "uint256"
        },
        {
          "internalType": "string",
          "name": "origin",
          "type": "string"
        },
        {
          "internalType": "string",
          "name": "quality",
          "type": "string"
        },
        {
          "internalType": "uint256",
          "name": "quantity",
          "type": "uint256"
        },
        {
          "internalType": "string",
          "name": "harvestDate",
          "type": "string"
        },
        {
          "internalType": "string",
          "name": "owner",
          "type": "string"
        },
        {
          "internalType": "uint256",
          "name": "timestamp",
          "type": "uint256"
        }
      ],
      "stateMutability": "view",
      "type": "function"
    },
    {
      "inputs": [
        {
          "internalType": "string",
          "name": "_origin",
          "type": "string"
        },
        {
          "internalType": "string",
          "name": "_quality",
          "type": "string"
        },
        {
          "internalType": "uint256",
          "name": "_quantity",
          "type": "uint256"
        },
        {
          "internalType": "string",
          "name": "_harvestDate",
          "type": "string"
        },
        {
          "internalType": "string",
          "name": "_owner",
          "type": "string"
        }
      ],
      "name": "addProduce",
      "outputs": [],
      "stateMutability": "nonpayable",
      "type": "function"
    },
    {
      "inputs": [
        {
          "internalType": "uint256",
          "name": "_id",
          "type": "uint256"
        },
        {
          "internalType": "string",
          "name": "_newOwner",
          "type": "string"
        }
      ],
      "name": "transferProduce",
      "outputs": [],
      "stateMutability": "nonpayable",
      "type": "function"
    },
    {
      "inputs": [
        {
          "internalType": "uint256",
          "name": "_id",
          "type": "uint256"
        }
      ],
      "name": "getProduce",
      "outputs": [
        {
          "internalType": "uint256",
          "name": "",
          "type": "uint256"
        },
        {
          "internalType": "string",
          "name": "",
          "type": "string"
        },
        {
          "internalType": "string",
          "name": "",
          "type": "string"
        },
        {
          "internalType": "uint256",
          "name": "",
          "type": "uint256"
        },
        {
          "internalType": "string",
          "name": "",
          "type": "string"
        },
        {
          "internalType": "string",
          "name": "",
          "type": "string"
        },
        {
          "internalType": "uint256",
          "name": "",
          "type": "uint256"
        }
      ],
      "stateMutability": "view",
      "type": "function"
    }
  ],
  "bytecode": "0x60806040525f600155348015610013575f80fd5b50610ba6806100215f395ff3fe608060405234801561000f575f80fd5b5060043610610055575f3560e01c8063389b80661461005957806356cd830614610088578063769428d41461009b578063a310001a146100b2578063f8e6a01f146100c7575b5f80fd5b61006c61006736600461075f565b6100da565b60405161007f97969594939291906107b9565b60405180910390f35b61006c61009636600461075f565b610395565b6100a460015481565b60405190815260200161007f565b6100c56100c03660046108c3565b6105e7565b005b6100c56100d5366004610907565b610654565b5f6060805f6060805f805f808a81526020019081526020015f206040518060e00160405290815f8201548152602001600182018054610118906109b6565b80601f0160208091040260200160405190810160405280929190818152602001828054610144906109b6565b801561018f5780601f106101665761010080835404028352916020019161018f565b820191905f5260205f20905b81548152906001019060200180831161017257829003601f168201915b505050505081526020016002820180546101a8906109b6565b80601f01602080910402602001604051908101604052809291908181526020018280546101d4906109b6565b801561021f5780601f106101f65761010080835404028352916020019161021f565b820191905f5260205f20905b81548152906001019060200180831161020257829003601f168201915b5050505050815260200160038201548152602001600482018054610242906109b6565b80601f016020809104026020016040519081016040528092919081815260200182805461026e906109b6565b80156102b95780601f10610290576101008083540402835291602001916102b9565b820191905f5260205f20905b81548152906001019060200180831161029c57829003601f168201915b505050505081526020016005820180546102d2906109b6565b80601f01602080910402602001604051908101604052809291908181526020018280546102fe906109b6565b80156103495780601f1061032057610100808354040283529160200191610349565b820191905f5260205f20905b81548152906001019060200180831161032c57829003601f168201915b50505091835250506006919091015460209182015281519082015160408301516060840151608085015160a086015160c090960151949f939e50919c509a509850919650945092505050565b5f60208190529081526040902080546001820180549192916103b6906109b6565b80601f01602080910402602001604051908101604052809291908181526020018280546103e2906109b6565b801561042d5780601f106104045761010080835404028352916020019161042d565b820191905f5260205f20905b81548152906001019060200180831161041057829003601f168201915b505050505090806002018054610442906109b6565b80601f016020809104026020016040519081016040528092919081815260200182805461046e906109b6565b80156104b95780601f10610490576101008083540402835291602001916104b9565b820191905f5260205f20905b81548152906001019060200180831161049c57829003601f168201915b5050505050908060030154908060040180546104d4906109b6565b80601f0160208091040260200160405190810160405280929190818152602001828054610500906109b6565b801561054b5780601f106105225761010080835404028352916020019161054b565b820191905f5260205f20905b81548152906001019060200180831161052e57829003601f168201915b505050505090806005018054610560906109b6565b80601f016020809104026020016040519081016040528092919081815260200182805461058c906109b6565b80156105d75780601f106105ae576101008083540402835291602001916105d7565b820191905f5260205f20905b8154815290600101906020018083116105ba57829003601f168201915b5050505050908060060154905087565b5f8281526020819052604090206005016106018282610a3c565b505f828152602081905260409081902042600690910155517f2fe63807ab9efa16c16c4f59802b76884e2c938186702057c2c1b092055e44a3906106489084908490610af8565b60405180910390a15050565b60018054905f61066383610b18565b90915550506040805160e0810182526001805480835260208084018a81528486018a9052606085018990526080850188905260a085018790524260c08601525f92835290829052939020825181559251919291908201906106c49082610a3c565b50604082015160028201906106d99082610a3c565b5060608201516003820155608082015160048201906106f89082610a3c565b5060a0820151600582019061070d9082610a3c565b5060c082015181600601559050507f2d1d8bb49ead2ecfc05d364396bf8520b1b499107187d0b34590de037eb0d982600154868360405161075093929190610b3c565b60405180910390a15050505050565b5f6020828403121561076f575f80fd5b5035919050565b5f81518084525f5b8181101561079a5760208185018101518683018201520161077e565b505f602082860101526020601f19601f83011685010191505092915050565b87815260e060208201525f6107d160e0830189610776565b82810360408401526107e38189610776565b905086606084015282810360808401526107fd8187610776565b905082810360a08401526108118186610776565b9150508260c083015298975050505050505050565b634e487b7160e01b5f52604160045260245ffd5b5f82601f830112610849575f80fd5b813567ffffffffffffffff8082111561086457610864610826565b604051601f8301601f19908116603f0116810190828211818310171561088c5761088c610826565b816040528381528660208588010111156108a4575f80fd5b836020870160208301375f602085830101528094505050505092915050565b5f80604083850312156108d4575f80fd5b82359150602083013567ffffffffffffffff8111156108f1575f80fd5b6108fd8582860161083a565b9150509250929050565b5f805f805f60a0868803121561091b575f80fd5b853567ffffffffffffffff80821115610932575f80fd5b61093e89838a0161083a565b96506020880135915080821115610953575f80fd5b61095f89838a0161083a565b955060408801359450606088013591508082111561097b575f80fd5b61098789838a0161083a565b9350608088013591508082111561099c575f80fd5b506109a98882890161083a565b9150509295509295909350565b600181811c908216806109ca57607f821691505b6020821081036109e857634e487b7160e01b5f52602260045260245ffd5b50919050565b601f821115610a37575f81815260208120601f850160051c81016020861015610a145750805b601f850160051c820191505b81811015610a3357828155600101610a20565b5050505b505050565b815167ffffffffffffffff811115610a5657610a56610826565b610a6a81610a6484546109b6565b846109ee565b602080601f831160018114610a9d575f8415610a865750858301515b5f19600386901b1c1916600185901b178555610a33565b5f85815260208120601f198616915b82811015610acb57888601518255948401946001909101908401610aac565b5085821015610ae857878501515f19600388901b60f8161c191681555b5050505050600190811b01905550565b828152604060208201525f610b106040830184610776565b949350505050565b5f60018201610b3557634e487b7160e01b5f52601160045260245ffd5b5060010190565b838152606060208201525f610b546060830185610776565b8281036040840152610b668185610776565b969550505050505056fea26469706673582212200eb0068dfa3da4f4eefc8e0e76f4d1d33f645c3c16c9045c1fd22a891ae2d6f964736f6c63430008140033",
  "immutableReferences": {},
  "source": "// SPDX-License-Identifier: MIT\r\npragma solidity ^0.8.20;\r\n\r\ncontract AgriProduce {\r\n    struct Produce {\r\n        uint id;\r\n        string origin;\r\n        string quality;\r\n        uint quantity;\r\n        string harvestDate;\r\n        string owner;\r\n        uint timestamp;\r\n    }\r\n\r\n    mapping(uint => Produce) public produces;\r\n    uint public produceCount = 0;\r\n\r\n    event ProduceAdded(uint id, string origin, string owner);\r\n    event ProduceTransferred(uint id, string newOwner);\r\n\r\n    function addProduce(\r\n        string memory _origin,\r\n        string memory _quality,\r\n        uint _quantity,\r\n        string memory _harvestDate,\r\n        string memory _owner\r\n    ) public {\r\n        produceCount++;\r\n        produces[produceCount] = Produce(produceCount, _origin, _quality, _quantity, _harvestDate, _owner, block.timestamp);\r\n        emit ProduceAdded(produceCount, _origin, _owner);\r\n    }\r\n\r\n    function transferProduce(uint _id, string memory _newOwner) public {\r\n        produces[_id].owner = _newOwner;\r\n        produces[_id].timestamp = block.timestamp;\r\n        emit ProduceTransferred(_id, _newOwner);\r\n    }\r\n\r\n    function getProduce(uint _id) public view returns (\r\n        uint,\r\n        string memory,\r\n        string memory,\r\n        uint,\r\n        string memory,\r\n        string memory,\r\n        uint\r\n    ) {\r\n        Produce memory p = produces[_id];\r\n        return (p.id, p.origin, p.quality, p.quantity, p.harvestDate, p.owner, p.timestamp);\r\n    }\r\n}\r\n",
  "sourcePath": "C:\\Users\\HP\\OneDrive\\Desktop\\SIH PROJECT\\contracts\\AgriProduce.sol",
  "compiler": {
    "name": "solc",
    "version": "0.8.20+commit.a1b79de6.Emscripten.clang"
  },
  "schemaVersion": "3.4.16",
  "updatedAt": "2025-09-25T12:16:57.459Z",
  "devdoc": {
    "kind": "dev",
    "methods": {},
    "version": 1
  },
  "userdoc": {
    "kind": "user",
    "methods": {},
    "version": 1
  }
}